:1000000010C02AC029C028C027C026C025C05AC099
:1000100023C0EBC021C020C01FC01EC01DC01CC01B
:100020001BC011241FBECFE5D2E0DEBFCDBF10E064
:10003000A0E6B0E0E6E0F3E002C005900D92AA363B
:10004000B107D9F720E0AAE6B0E001C01D92AB37B6
:10005000B207E1F74ED155C1D3CF8AB383678ABBCC
:100060008AB383778ABB88988A9A9298089581E2A6
:1000700083BF89B7826089BF089510BC81E089B9C8
:100080001BB880E98AB98EE880BD08958BB38C785F
:100090008BBB109273001092720010927600109237
:1000A000750010927A00109279008EEB90E0909398
:1000B00071008093700088EC90E0909378008093BA
:1000C000770008951F920F920FB60F9211242F936D
:1000D0003F938F939F9380916C0090916D008F3F21
:1000E000910511F00CF074C020916C0030916D00FE
:1000F00080917200909173008217930714F0DC9A3C
:1001000001C0DC9880916C0090916D0001969093F5
:100110006D0080936C0020916C0030916D00809197
:100120007500909176008217930714F0DD9A01C054
:10013000DD9880916C0090916D00019690936D0018
:1001400080936C0020916C0030916D00809179005B
:1001500090917A008217930714F0DE9A01C0DE981E
:1001600080916C0090916D00019690936D0080934A
:100170006C0020916C0030916D0080917000909126
:1001800071008217930714F0D89A01C0D898809113
:100190006C0090916D00019690936D0080936C00BF
:1001A00020916C0030916D008091770090917800E3
:1001B0008217930714F0D99A01C0D99880916C00E6
:1001C00090916D00019690936D0080936C0004C037
:1001D00010926D0010926C009F918F913F912F9122
:1001E0000F900FBE0F901F9018951F920F920FB691
:1001F0000F9211242F933F934F938F939F93F894D3
:100200009BB14CB18091740094FF0BC05C9881E06D
:1002100090E090936F0080936E0081E08093740073
:100220005EC0813021F4411157C082E019C0823094
:10023000D1F480916E0090916F00019790936F00C0
:1002400080936E00892B09F049C081E090E0909383
:100250006F0080936E00409370001092710083E0F5
:10026000809374003BC08330C9F580916E009091FB
:100270006F00019690936F0080936E002091600054
:10028000309161008217930721F440937700109218
:10029000780020916800309169008217930721F45B
:1002A00040937200109273002091660030916700B5
:1002B0008217930721F440937500109276002091E5
:1002C0006400309165008217930721F44093790010
:1002D00010927A00079710F01092740078949F9112
:1002E0008F914F913F912F910F900FBE0F901F90C4
:1002F0001895B3DEBCDEC1DEC9DE109274007894BE
:06030000FFCFF894FFCFCF
:0A03060002000100060005000400DB
:00000001FF
